:0400000025EF00F0F8
:1000080009824E0E046EEB0EE82EFED7042EFCD7A6
:1000180000F081B012EF00F014EF00F022EF00F0D2
:10002800082A080E08641BEF00F01DEF00F01FEF10
:1000380000F0080E086E0850B4EC00F0F292099235
:1000480011009DEF01F0076E6AEF00F0C00E806EA0
:10005800B3EF00F0F90E806EB3EF00F0A40E806EDF
:10006800B3EF00F0B00E806EB3EF00F0990E806E23
:10007800B3EF00F0920E806EB3EF00F0820E806E48
:10008800B3EF00F0F80E806EB3EF00F0800E806ED4
:10009800B3EF00F0980E806EB3EF00F0880E806E1C
:1000A800B3EF00F0830E806EB3EF00F0A70E806E02
:1000B800B3EF00F0A10E806EB3EF00F0860E806EF5
:1000C800B3EF00F08E0E806EB3EF00F00750056EB0
:1000D800066A0650000AD8B474EF00F066EF00F024
:1000E8000550000AD8B42AEF00F0010AD8B42EEF60
:1000F80000F0030AD8B432EF00F0010AD8B436EFA2
:1001080000F0070AD8B43AEF00F0010AD8B43EEF7D
:1001180000F0030AD8B442EF00F0010AD8B446EF61
:1001280000F00F0AD8B44AEF00F0010AD8B44EEF35
:1001380000F0030AD8B452EF00F0010AD8B456EF21
:1001480000F0070AD8B45AEF00F0010AD8B45EEFFD
:1001580000F0030AD8B462EF00F066EF00F0120076
:10016800036EF7EF00F0C00E806E40EF01F0F90E5D
:10017800806E40EF01F0A40E806E40EF01F0B00EEB
:10018800806E40EF01F0990E806E40EF01F0920E04
:10019800806E40EF01F0820E806E40EF01F0F80EA5
:1001A800806E40EF01F0800E806E40EF01F0980EF7
:1001B800806E40EF01F0880E806E40EF01F0830EF4
:1001C800806E40EF01F0A70E806E40EF01F0A10EA7
:1001D800806E40EF01F0860E806E40EF01F08E0ECB
:1001E800806E40EF01F00350016E026A0250000A6F
:1001F800D8B401EF01F0F3EF00F00150000AD8B4D1
:10020800B7EF00F0010AD8B4BBEF00F0030AD8B486
:10021800BFEF00F0010AD8B4C3EF00F0070AD8B462
:10022800C7EF00F0010AD8B4CBEF00F0030AD8B446
:10023800CFEF00F0010AD8B4D3EF00F00F0AD8B41A
:10024800D7EF00F0010AD8B4DBEF00F0030AD8B406
:10025800DFEF00F0010AD8B4E3EF00F0070AD8B4E2
:10026800E7EF00F0010AD8B4EBEF00F0030AD8B4C6
:10027800EFEF00F0F3EF00F012005FEC01F094EC08
:1002880001F0AFEC01F04FEF01F0AAEC01F0080625
:10029800085027EC00F00850D8A455EF01F057EFAC
:1002A80001F049EF01F08BEC01F0A5EC01F043EF10
:1002B80001F025EF00F0640ED36ED08EF28EF28C32
:1002C800F19CF288F292000E0F015E6F000E956E9F
:1002D800000E836E000E5B6F000E926E000E806E35
:1002E800000E5C6F9384939293801200EE0ED66E8C
:1002F800850ED76E850ED56EF2A485EF01F087EFD7
:1003080001F080EF01F0F294000ED56E1200410E5C
:100318008C6E7AEC01F07AEC01F07AEC01F01200C4
:10032800140E8C6E7AEC01F07AEC01F07AEC01F0A4
:100338001200086A09900992000EF86E000141EF58
:1003480001F0210E8C6E7AEC01F01200990E8C6E81
:100358007AEC01F01200120E8C6E7AEC01F01200A9
:020000040020DA
:08000000FFFFFFFFFFFFFFFF00
:020000040030CA
:0E00000000285F3CFFD385FF0FC00FE00F40CC
:00000001FF
