:0400000028EF08F0ED
:10080000003132332B3435362D3738392A3D3043D9
:100810002F2D57726F6E672046756E6374696F6E09
:10082000002D57726F6E6720496E707574002D2D04
:100830000000E00E8A6E3DEF04F0010EF66E080E29
:10084000F76E0800F55020EF05F0020EF66E080E68
:10085000F76E0800F55020EF05F0030EF66E080E57
:10086000F76E0800F55020EF05F0040EF66E080E46
:10087000F76E0800F55020EF05F08150016E026A16
:100880000250000AD8B447EF04F05AEF04F00150C8
:10089000E70AD8B435EF04F00C0AD8B42DEF04F011
:1008A000060AD8B425EF04F0030AD8B41DEF04F00B
:1008B0005AEF04F0D00E8A6E7EEF04F0050EF66E4D
:1008C000080EF76E0800F55020EF05F0060EF66EE4
:1008D000080EF76E0800F55020EF05F0070EF66ED3
:1008E000080EF76E0800F55020EF05F0080EF66EC2
:1008F000080EF76E0800F55020EF05F08150016EEC
:10090000026A0250000AD8B488EF04F09BEF04F0AA
:100910000150D70AD8B476EF04F00C0AD8B46EEFC1
:1009200004F0060AD8B466EF04F0030AD8B45EEF08
:1009300004F09BEF04F0B00E8A6EBFEF04F0090ED6
:10094000F66E080EF76E0800F55020EF05F00A0E5F
:10095000F66E080EF76E0800F55020EF05F00B0E4E
:10096000F66E080EF76E0800F55020EF05F00C0E3D
:10097000F66E080EF76E0800F55020EF05F0815076
:10098000016E026A0250000AD8B4C9EF04F0DCEF2D
:1009900004F00150B70AD8B4B7EF04F00C0AD8B489
:1009A000AFEF04F0060AD8B4A7EF04F0030AD8B4F6
:1009B0009FEF04F0DCEF04F0700E8A6E00EF05F09C
:1009C0000D0EF66E080EF76E0800F55020EF05F0DC
:1009D0000E0EF66E080EF76E0800F55020EF05F0CB
:1009E0000F0EF66E080EF76E0800F55020EF05F0BA
:1009F000100EF66E080EF76E0800F55020EF05F0A9
:100A00008150016E026A0250000AD8B40AEF05F064
:100A10001DEF05F00150770AD8B4F8EF04F00C0A86
:100A2000D8B4F0EF04F0060AD8B4E8EF04F0030AF3
:100A3000D8B4E0EF04F01DEF05F0000E8A6E780EDA
:100A40001200740ED36E5EEC07F03DEC08F0C7ECBC
:100A500007F01A6E1A5000EC08F01A50FBEC05F083
:100A60000AC017F00BC018F00D0E17181810D8B4E4
:100A70003CEF05F03EEF05F027EF05F0C7EC07F07F
:100A80001A6E1A5000EC08F01A50EBEC06F0196ED2
:100A9000650E1918D8B44FEF05F051EF05F027EFA8
:100AA00005F0C7EC07F01A6E1A5000EC08F01A5067
:100AB000FBEC05F00AC015F00BC016F00D0E151872
:100AC0001610D8B466EF05F068EF05F027EF05F0D3
:100AD000C7EC07F01A6E1A5000EC08F03D0E1A1819
:100AE000D8A475EF05F077EF05F0E1EF05F0C00E43
:100AF00033EC08F0C4EF05F015501724096E1650BA
:100B000018200A6E29EC07F0020E33EC08F027EFEC
:100B100005F01550175C096E165018580A6E29EC2E
:100B200007F0020E33EC08F027EF05F017C001F0D4
:100B300018C002F015C003F016C004F015EC08F060
:100B400001C009F002C00AF029EC07F0020E33ECF4
:100B500008F027EF05F017C001F018C002F015C02B
:100B600003F016C004F089EC06F001C013F002C0D7
:100B700014F013C009F014C00AF029EC07F0020EBB
:100B800033EC08F027EF05F01950116E126A12507D
:100B9000000AD8B4CEEF05F0F7EF05F011502A0A9D
:100BA000D8B496EF05F0010AD8B47CEF05F0060A38
:100BB000D8B489EF05F0020AD8B4ABEF05F0F7EF2F
:100BC00005F0430E1A18D8A4E8EF05F0EAEF05F097
:100BD000EFEF05F0010E33EC08F027EF05F0000E03
:100BE000076E000E066E93EC07F027EF05F027EF77
:100BF00005F000EF00F00E6E4BEF06F0000E106EE9
:100C0000000E0F6E84EF06F0000E106E010E0F6ED8
:100C100084EF06F0000E106E020E0F6E84EF06F0E9
:100C2000000E106E030E0F6E84EF06F0000E106EB5
:100C3000040E0F6E84EF06F0000E106E050E0F6EA0
:100C400084EF06F0000E106E060E0F6E84EF06F0B5
:100C5000000E106E070E0F6E84EF06F0000E106E81
:100C6000080E0F6E84EF06F0000E106E090E0F6E68
:100C700084EF06F0010E33EC08F0000E106E0D0E3E
:100C80000F6E84EF06F0000E076E000E066E93ECFA
:100C900007F03DEF06F00E500C6E0D6A0D50000A85
:100CA000D8B455EF06F043EF06F00C50300AD8B434
:100CB000FEEF05F0010AD8B404EF06F0030AD8B439
:100CC0000AEF06F0010AD8B410EF06F0070AD8B40C
:100CD00016EF06F0010AD8B41CEF06F0030AD8B4E8
:100CE00022EF06F0010AD8B428EF06F00F0AD8B4B4
:100CF0002EEF06F0010AD8B434EF06F07A0AD8B421
:100D00003AEF06F043EF06F00FC00AF010C00BF008
:100D10001200000E066E04BE92EF06F090EF06F091
:100D200098EF06F0036C041ED8B0042A010E066E7C
:100D300002BE9FEF06F09DEF06F0A5EF06F0016CF6
:100D4000021ED8B0022A010E061A000E086E000E0E
:100D5000076E03500410D8B4B0EF06F0B2EF06F0FF
:100D6000DAEF06F0010E056EBAEF06F0D890033602
:100D70000436052A04AEBFEF06F0C1EF06F0B6EF69
:100D800006F0D890073608360350015C045002582C
:100D9000D8A0CDEF06F0CFEF06F0D4EF06F0035069
:100DA000015E0450025A0780D89004320332052EA7
:100DB000C1EF06F00650D8B4E0EF06F0E2EF06F01F
:100DC000E6EF06F0076C081ED8B0082A07C001F04D
:100DD00008C002F012000A6E430E0A18D8A4F3EFFE
:100DE00006F0F5EF06F0FBEF06F0010E33EC08F02D
:100DF000650E28EF07F02B0E0A18D8B402EF07F0A3
:100E000004EF07F027EF07F02D0E0A18D8B40BEF08
:100E100007F00DEF07F027EF07F02A0E0A18D8B4F5
:100E200014EF07F016EF07F027EF07F02F0E0A1860
:100E3000D8B41DEF07F01FEF07F027EF07F0000E03
:100E4000076E010E066E93EC07F0F8EF06F00A50FD
:100E50001200000E0C6E0ABE32EF07F030EF07F002
:100E60003CEF07F02E0E046E080E056EE5EC07F061
:100E7000096C0A1ED8B00A2A09C001F00AC002F0A3
:100E8000000E046E0A0E036E89EC06F001500C6E23
:100E90000C50D8B44EEF07F050EF07F054EF07F0C6
:100EA0000C50300F00EC08F00C50F60DF3500924F4
:100EB0000B6E0B50300F00EC08F01200000E956E18
:100EC0008B948B928B90000E8B6E94909494949252
:100ED000380E33EC08F0030E036E8A0E026E560EC7
:100EE000E82EFED7022EFCD7032EFAD70E0E33ECD7
:100EF00008F0030E036E8A0E026E560EE82EFED721
:100F0000022EFCD7032EFAD7010E33EC08F0030EA5
:100F1000036E8A0E026E560EE82EFED7022EFCD706
:100F2000032EFAD71200010E33EC08F0B0EF07F0F1
:100F3000210E046E080E056EE5EC07F0C6EF07F013
:100F4000110E046E080E056EE5EC07F0C6EF07F013
:100F5000210E046E080E056EE5EC07F0C6EF07F0F3
:100F600006C008F007C009F00950000AD8B4BBEF6A
:100F700007F0A8EF07F00850000AD8B498EF07F080
:100F8000010AD8B4A0EF07F0A8EF07F01200780E1E
:100F90001A6EDAEF07F019EC04F01A6E020E046E06
:100FA000040E036EBA0EE82EFED7032EFCD7042ED5
:100FB000FAD700D0780E1A18D8B4E1EF07F0E3EFB3
:100FC00007F0CBEF07F01A501200F1EF07F004C062
:100FD000F6FF05C0F7FF0800F55000EC08F0044AE2
:100FE000052A04C0F6FF05C0F7FF0800F550000908
:100FF000D8A4FDEF07F0FFEF07F0E7EF07F01200CE
:10100000036E8B848B928B8003C08CFF00F000F00A
:101010008B90030E026E8A0E016E560EE82EFED7DE
:10102000012EFCD7022EFAD7120001500302F3CF93
:1010300005F0F4CF06F001500402F35006260250EA
:101040000302F350062605C001F006C002F01200AC
:101050001A6A196A186A176A166A156A000EF86E13
:10106000000121EF05F0016E8B948B928B8000F0D4
:1010700001C08CFF00F08B901200000E0F015C6F1E
:0C1080000F0E936E0F0E856EF19E120095
:020000040020DA
:08000000FFFFFFFFFFFFFFFF00
:020000040030CA
:0E00000000285F3CFFD385FF0FC00FE00F40CC
:00000001FF
