:04000000D1EF05F047
:10080000004672657175656E63793A00303030204C
:10081000487A0000000E0C6E0ABE13EF04F011EFD0
:1008200004F019EF04F0096C0A1ED8B00A2A010E70
:100830000C6E08BE20EF04F01EEF04F026EF04F06B
:10084000076C081ED8B0082A010E0C1A000E0E6E96
:10085000000E0D6E09500A10D8B431EF04F033EFDA
:1008600004F05BEF04F0010E0B6E3BEF04F0D89048
:1008700009360A360B2A0AAE40EF04F042EF04F0C4
:1008800037EF04F0D8900D360E360950075C0A5049
:100890000858D8A04EEF04F050EF04F055EF04F0E4
:1008A0000950075E0A50085A0D80D8900A32093262
:1008B0000B2E42EF04F00C50D8B461EF04F063EF5C
:1008C00004F067EF04F00D6C0E1ED8B00E2A0DC0B8
:1008D00007F00EC008F01200000E136E000E146E2A
:1008E0000FC007F010C008F0000E0A6E640E096E0B
:1008F0000AEC04F00750146E14C001F0026AFF0EF7
:10090000046E9C0E036EA3EC05F00F500124076EDD
:1009100010500220086E000E0A6E0A0E096E0AECD4
:1009200004F00750136E14509C0DF3CF11F01350C8
:10093000F60DF35011240F24126E520E1718D8A47E
:10094000A4EF04F0A6EF04F0B4EF04F01450300F5D
:10095000B6EC05F01350300FB6EC05F01250300F26
:10096000B6EC05F0C9EF04F04C0E1718D8A4BBEF95
:1009700004F0BDEF04F0C9EF04F01250300FB6ECF4
:1009800005F01350300FB6EC05F01450300FB6ECF4
:1009900005F01200056EE0EF04F002508009066ECB
:1009A0000650C7EC05F0F5EF04F00250C009066EE2
:1009B0000650C7EC05F0F5EF04F000F0F5EF04F099
:1009C0000550036E046A0450000AD8B4EAEF04F03C
:1009D000DDEF04F00350000AD8B4CDEF04F0010AB3
:1009E000D8B4D5EF04F0DDEF04F01200340ED36E6E
:1009F000D9EC05F021EC05F0010E036E080E046E33
:100A000088EC05F0000E026E010ECAEC04F00C0E2C
:100A1000036E080E046E88EC05F04C0E4AEC05F0EF
:100A2000020E026E010ECAEC04F06AEC05F015C06D
:100A30000FF016C010F06CEC04F010EF05F000EFB2
:100A400000F0000E956E8B948B928B90000E8B6E47
:100A5000949094949492380EC7EC05F0520E026E66
:100A60002A0EE82EFED7022EFCD70E0EC7EC05F09C
:100A7000520E026E2A0EE82EFED7022EFCD7010E71
:100A8000C7EC05F0520E026E2A0EE82EFED7022E9B
:100A9000FCD71200026E4C0E0218D8A452EF05F0DB
:100AA00054EF05F05BEF05F0040EC7EC05F04C0EBB
:100AB000176E69EF05F0520E0218D8A462EF05F028
:100AC00064EF05F069EF05F0060EC7EC05F0520E75
:100AD000176E1200EE0ECE6E850ECF6ECC9E9E90DF
:100AE000310ECD6E76EF05F0F80ED56E9EA07BEF41
:100AF00005F07DEF05F074EF05F0D6CF15F0166A1E
:100B0000000ED66E000ECD6E000ED56E9E901200B9
:100B100094EF05F003C0F6FF04C0F7FF0800F5509E
:100B2000B6EC05F0034A042A03C0F6FF04C0F7FF41
:100B30000800F5500009D8A4A0EF05F0A2EF05F0D9
:100B40008AEF05F0120001500302F3CF05F0F4CF55
:100B500006F001500402F350062602500302F3503F
:100B6000062605C001F006C002F01200026E8B845A
:100B70008B928B8002C08CFF00F000F08B90520EA5
:100B8000016E2A0EE82EFED7012EFCD71200016E50
:100B90008B948B928B8000F001C08CFF00F08B90C7
:100BA0001200176A166A156A000EF86E0001F6EF59
:060BB00004F0928812001F
:020000040020DA
:08000000FFFFFFFFFFFFFFFF00
:020000040030CA
:0E00000000285F3CFFD385FF0FC00FE00F40CC
:00000001FF
