:0400000091EF26F066
:100800000000000000DCCFD1350000000000C01562
:100810003F6042A20D70A5EC363BAAB83F4F387638
:100820003F3CAA38338CBEBF350072313F1872315D
:100830003F4CBB31330EEADDB555B38A38610B3618
:10084000BBABAA2A3E42F1533E55326C3E05A38B08
:100850003EABAAAA3EB76DDB3E9A99193F6042A211
:100860000DCAF249710000804B0000803F0000C0BB
:0F0870003F00AAB83FC623F6B80040763F00000D
:1008800084C0B8F185C0B9F186C0BAF187C0BBF1A8
:10089000B8C160F1B9C161F1BAC162F1BBC163F124
:1008A00088C0B8F189C0B9F18AC0BAF18BC0BBF178
:1008B000B8C184F1B9C185F1BAC186F1BBC187F174
:1008C000FF0E01016015A86FFF0E6115A96FFF0EE5
:1008D0006215AA6F7F0E6315AB6FFF0E8415986FBC
:1008E000FF0E8515996FFF0E86159A6F7F0E87157F
:1008F0009B6F985199119A119B11D8A482EF04F023
:1009000084EF04F08FEF04F0000E0001846F000EFE
:10091000856F800E866F3F0E876FBBEF18F0800EDD
:10092000621909E13F0E631960116111D8A49BEFB0
:1009300004F09DEF04F0A8EF04F0000E0001846FB6
:10094000000E856F800E866F3F0E876FBBEF18F02D
:10095000ABBFB9EF04F0A805000EA959800EAA5943
:100960007F0EAB59D8B0B7EF04F0B9EF04F0CAEF7F
:1009700004F09BBFC8EF04F09805000E9959800E53
:100980009A597F0E9B59D8A0C8EF04F0CAEF04F023
:10099000E6EF04F084C001F085C002F086C003F0E9
:1009A00087C004F088C005F089C006F08AC007F04F
:1009B0008BC008F01CEC1BF001C084F002C085F075
:1009C00003C086F004C087F0BBEF18F0000E506F34
:1009D000000E516F000E526F000E536F63BFF5EFA4
:1009E00004F0F3EF04F0A0EF05F09BBF01EF05F07A
:1009F000800E9A5D4B0E9B59D8A001EF05F003EFD6
:100A000005F00DEF05F0020E506F000E516F000E55
:100A1000526F000E536FA0EF05F09BBF19EF05F06A
:100A2000800E9A5D3F0E9B59D8A019EF05F01BEF81
:100A300005F0A0EF05F0170E4B6E98C14CF099C170
:100A40004DF09AC14EF09BC14FF04B662AEF05F076
:100A500032EF05F04F344F324E324D324C324B2E86
:100A600025EF05F0810E4C240101A06FFF0E4D20F3
:100A7000A16FFF0E4E20A26FFF0E4F20A36FA0515B
:100A800017084B6E98C14CF099C14DF09AC14EF0C9
:100A90009BC14FF04B664FEF05F057EF05F04F3419
:100AA0004F324E324D324C324B2E4AEF05F04CC095
:100AB000ACF14DC0ADF14EC0AEF14FC0AFF1010190
:100AC000A05117084B6EACC14CF0ADC14DF0AEC19A
:100AD0004EF0AFC14FF04B2A73EF05F0D8904C3673
:100AE0004D364E364F364B2E6EEF05F098514C1862
:100AF0000DE199514D180AE19A514E1807E19B51A9
:100B00004F18D8A486EF05F088EF05F0A0EF05F0A8
:100B1000010EAC154B6E000EAD154C6E000EAE15F1
:100B20004D6E000EAF154E6E4B500208506F000E0A
:100B30004C54516F000E4D54526F000E4E54536F73
:100B4000800E9A1909E17F0E9B1998119911D8A46A
:100B5000ACEF05F0AEEF05F01AEF06F0800EAA1923
:100B600009E13F0EAB19A811A911D8A4BAEF05F0FD
:100B7000BCEF05F0C7EF05F0000E0001846F000E1A
:100B8000856F800E866F3F0E876FBBEF18F0ABBF8F
:100B9000D6EF05F0A805000EA959800EAA593F0E00
:100BA000AB59D8A0D6EF05F0D8EF05F0F4EF05F07B
:100BB00087BFDFEF05F0DDEF05F0EAEF05F0000E8F
:100BC0000001846F000E856F000E866F000E876F28
:100BD000BBEF18F088C084F089C085F08AC086F029
:100BE0008BC087F0BBEF18F087BFFBEF05F0F9EF84
:100BF00005F00FEF06F088C001F089C002F08AC04E
:100C000003F08BC004F04AEC26F001C084F002C06F
:100C100085F003C086F004C087F0BBEF18F0000E2B
:100C20000001846F000E856F000E866F000E876FC7
:100C3000BBEF18F0800E9A1909E13F0E9B1998112D
:100C40009911D8A426EF06F028EF06F055EF06F02C
:100C500087BF2FEF06F02DEF06F04BEF06F0000EEA
:100C6000326E000E336E800E346E3F0E356E84C0D1
:100C700036F085C037F086C038F087C039F091EC87
:100C80001FF032C084F033C085F034C086F035C028
:100C900087F0BBEF18F084C084F085C085F086C073
:100CA00086F087C087F0BBEF18F0400E87198411DB
:100CB00085118611D8A45FEF06F061EF06F07DEF95
:100CC00006F084C011F085C012F086C013F087C012
:100CD00014F084C015F085C016F086C017F087C0E8
:100CE00018F07CEC1DF011C084F012C085F013C028
:100CF00086F014C087F0BBEF18F03F0E87198411FF
:100D000085118611D8A487EF06F089EF06F0A4EFCD
:100D100006F063BF8EEF06F090EF06F0A4EF06F04A
:100D200084C03EF085C03FF086C040F087C041F0EF
:100D3000BCEC18F03EC084F03FC085F040C086F0A7
:100D400041C087F0BBEF18F084C001F085C002F00D
:100D500086C003F087C004F066EC26F001C070F195
:100D600002C071F103C072F104C073F1800E010181
:100D7000AA190BE17F0EAB19A811A911D8B4C3EFC2
:100D800006F0C5EF06F0DEEF06F0A851A911AA1192
:100D9000AB11D8B4CEEF06F0D0EF06F0DEEF06F0E0
:100DA000800EAA1909E13F0EAB19A811A911D8A408
:100DB000DCEF06F0DEEF06F09EEF07F070C1B4F155
:100DC00071C1B5F172C1B6F173C1B7F187BFEDEF73
:100DD00006F0EBEF06F007EF07F0000E326E000EA4
:100DE000336E800E346E3F0E356EB4C136F0B5C131
:100DF00037F0B6C138F0B7C139F091EC1FF032C00E
:100E0000B4F133C0B5F134C0B6F135C0B7F101016A
:100E100063BF0FEF07F00DEF07F094EF07F0000E40
:100E2000A8254B6E000EA9214C6E800EAA214D6E96
:100E3000C00EAB214E6E50514B104F6E51514C10A5
:100E4000506E52514D10516E53514E10526E4F50C4
:100E5000501051105210D8A430EF07F032EF07F0C5
:100E600077EF07F0000E0001976F210E966FB4C167
:100E70002EF0B5C12FF0B6C130F0B7C131F0B4C11A
:100E80002AF0B5C12BF0B6C12CF0B7C12DF027EC7C
:100E900026F02AC032F02BC033F02CC034F02DC025
:100EA00035F0B4C12EF0B5C12FF0B6C130F0B7C1E6
:100EB00031F0B4C12AF0B5C12BF0B6C12CF0B7C1E6
:100EC0002DF027EC26F02AC036F02BC037F02CC0CE
:100ED00038F02DC039F091EC1FF032C0B4F133C0BE
:100EE000B5F134C0B6F135C0B7F194EF07F0500555
:100EF000511152115311D8A480EF07F082EF07F07F
:100F000094EF07F0B4C101F0B5C102F0B6C103F02F
:100F1000B7C104F04AEC26F001C0B4F102C0B5F14B
:100F200003C0B6F104C0B7F1B4C184F0B5C185F017
:100F3000B6C186F0B7C187F0BBEF18F0000E886F1E
:100F4000000E896F800E8A6F3F0E8B6F63BFADEF0F
:100F500007F0ABEF07F010EF08F0505151115211AC
:100F60005311D8A4B6EF07F0B8EF07F0FDEF07F084
:100F7000000E0001976F210E966F84C02EF085C081
:100F80002FF086C030F087C031F084C02AF085C0D1
:100F90002BF086C02CF087C02DF027EC26F02AC05D
:100FA00032F02BC033F02CC034F02DC035F084C0AB
:100FB0002EF085C02FF086C030F087C031F084C09D
:100FC0002AF085C02BF086C02CF087C02DF027ECCE
:100FD00026F02AC036F02BC037F02CC038F02DC0D8
:100FE00039F091EC1FF032C084F033C085F034C08A
:100FF00086F035C087F0BBEF18F050055111521143
:101000005311D8A406EF08F008EF08F010EF08F02D
:10101000000E886F000E896F800E8A6FBF0E8B6F77
:101020009BBF1FEF08F09805000E9959000E9A59C2
:101030004D0E9B59D8A01FEF08F021EF08F0A6EF46
:101040000AF0ABBF33EF08F0F80EA85DFF0EA95908
:101050007F0EAA593F0EAB59D8B031EF08F033EFED
:1010600008F0A6EF08F087BF38EF08F03AEF08F075
:1010700070EF08F0600E156E420E166EA20E176E1F
:101080000D0E186E88C111F089C112F08AC113F0DB
:101090008BC114F07CEC1DF011C0A4F112C0A5F1BD
:1010A00013C0A6F114C0A7F1A4C111F0A5C112F09C
:1010B000A6C113F0A7C114F0600E156E420E166E95
:1010C000A20E176E0D0E186E7CEC1DF011C084F090
:1010D00012C085F013C086F014C087F0BBEF18F083
:1010E000CA0E156EF20E166E490E176E710E186E40
:1010F00088C111F089C112F08AC113F08BC114F0BC
:101100007CEC1DF011C0A4F112C0A5F113C0A6F132
:1011100014C0A7F1A4C111F0A5C112F0A6C113F02B
:10112000A7C114F0CA0E156EF20E166E490E176E98
:10113000710E186E7CEC1DF011C084F012C085F0A9
:1011400013C086F014C087F0BBEF18F0ABBFB6EF4A
:1011500008F0080EA85D000EA959800EAA593F0E8E
:10116000AB59D8A0B6EF08F0B8EF08F033EF09F0AC
:1011700087BFC7EF08F087518611851106E1840506
:10118000D8B0C5EF08F0C7EF08F0FDEF08F0600E2B
:10119000156E420E166EA20E176E0D0E186E88C1D9
:1011A00011F089C112F08AC113F08BC114F07CECEC
:1011B0001DF011C0A4F112C0A5F113C0A6F114C016
:1011C000A7F1A4C111F0A5C112F0A6C113F0A7C1E7
:1011D00014F0600E156E420E166EA20E176E0D0EF6
:1011E000186E7CEC1DF011C084F012C085F013C0A5
:1011F00086F014C087F0BBEF18F0CA0E156EF20E21
:10120000166E490E176E710E186E88C111F089C1E5
:1012100012F08AC113F08BC114F07CEC1DF011C0E8
:10122000A4F112C0A5F113C0A6F114C0A7F1A4C186
:1012300011F0A5C112F0A6C113F0A7C114F0CA0E97
:10124000156EF20E166E490E176E710E186E7CEC4E
:101250001DF011C084F012C085F013C086F014C0D8
:1012600087F0BBEF18F070C101F071C102F072C1DC
:1012700003F073C104F0000E056E000E066E800EC2
:10128000076EBF0E086E1CEC1BF001C0B0F102C06F
:10129000B1F103C0B2F104C0B3F1000E156E000E3F
:1012A000166E800E176E3E0E186EB0C111F0B1C1F1
:1012B00012F0B2C113F0B3C114F07CEC1DF011C0F8
:1012C0002EF012C02FF013C030F014C031F0AB0E6E
:1012D0002A6EAA0E2B6EAA0E2C6E3E0E2D6E27ECD9
:1012E00026F02AC0A4F12BC0A5F12CC0A6F12DC078
:1012F000A7F1B0C115F0B1C116F0B2C117F0B3C17A
:1013000018F0B0C111F0B1C112F0B2C113F0B3C105
:1013100014F07CEC1DF011C054F112C055F113C053
:1013200056F114C057F1B0C115F0B1C116F0B2C1F9
:1013300017F0B3C118F0A4C111F0A5C112F0A6C1F5
:1013400013F0A7C114F07CEC1DF011C02EF012C0F8
:101350002FF013C030F014C031F0000E2A6E000ED2
:101360002B6E000E2C6E3F0E2D6E27EC26F02AC041
:1013700048F12BC049F12CC04AF12DC04BF154C1AA
:1013800011F055C112F056C113F057C114F048C105
:1013900015F049C116F04AC117F04BC118F07CECAA
:1013A0001DF011C044F112C045F113C046F114C044
:1013B00047F1B0C111F0B1C112F0B2C113F0B3C125
:1013C00014F0000E156EAA0E166EB80E176E3F0EB4
:1013D000186E7CEC1DF011C074F112C075F113C0D1
:1013E00076F114C077F1700E156EA50E166EEC0E28
:1013F000176E360E186EB0C111F0B1C112F0B2C145
:1014000013F0B3C114F07CEC1DF011C02AF012C02F
:101410002BF013C02CF014C02DF03B0E156EAA0E4D
:10142000166EB80E176E3F0E186E44C111F045C10E
:1014300012F046C113F047C114F07CEC1DF011C04E
:101440002EF012C02FF013C030F014C031F027EC92
:1014500026F02AC078F12BC079F12CC07AF12DC08A
:101460007BF174C101F075C102F076C103F077C160
:1014700004F078C105F079C106F07AC107F07BC1AC
:1014800008F01CEC1BF001C080F102C081F103C028
:1014900082F104C083F180C1B8F181C1B9F182C188
:1014A000BAF183C1BBF1B8C190F1B9C191F1BAC130
:1014B00092F1BBC193F1000E01019015B86FF00ECF
:1014C0009115B96FFF0E9215BA6FFF0E9315BB6F92
:1014D000B8C180F1B9C181F1BAC182F1BBC183F158
:1014E00074C12EF075C12FF076C130F077C131F0A4
:1014F00080C12AF081C12BF082C12CF083C12DF074
:1015000027EC26F02AC094F12BC095F12CC096F15F
:101510002DC097F178C12AF079C12BF07AC12CF057
:101520007BC12DF094C12EF095C12FF096C130F003
:1015300097C131F027EC26F02AC01CF12BC01DF119
:101540002CC01EF12DC01FF1EEEF11F0000E7C6FCC
:10155000000E7D6F000E7E6F000E7F6FABBFBCEF85
:101560000AF0AB5107E1800EAA5DD8B0BAEF0AF0DD
:10157000BCEF0AF0EFEF0AF070C111F071C112F088
:1015800072C113F073C114F0000E156E000E166ECA
:10159000800E176E4B0E186E7CEC1DF011C070F1B2
:1015A00012C071F113C072F114C073F1E80E0101A1
:1015B0007C27FF0E7D23FF0E7E23FF0E7F2370C14D
:1015C000B8F171C1B9F172C1BAF173C1BBF1B8C15F
:1015D000A8F1B9C1A9F1BAC1AAF1BBC1ABF1170E0B
:1015E0004B6EA8C14CF0A9C14DF0AAC14EF0ABC1E1
:1015F0004FF04B66FEEF0AF006EF0BF04F344F3220
:101600004E324D324C324B2EF9EF0AF0810E4C2403
:10161000506EFF0E4D20516EFF0E4E20526EFF0E8B
:101620004F20536E505001017C2751507D23525062
:101630007E2353507F23FF0EA815AC6FFF0EA91514
:10164000AD6F7F0EAA15AE6F000EAB15AF6F000E1B
:10165000AC11A86F000EAD11A96F800EAE11AA6F6C
:101660003F0EAF11AB6FAFBF45EF0BF0AF510BE1CA
:10167000720EAC5DC40EAD591C0EAE59D8B043EF1E
:101680000BF045EF0BF04FEF0BF0000EA06F000ECC
:10169000A16F000EA26F000EA36F81EF0BF0AFBF22
:1016A00061EF0BF0AF510BE1D70EAC5DB30EAD594E
:1016B0005D0EAE59D8B05FEF0BF061EF0BF06BEF42
:1016C0000BF0010EA06F000EA16F000EA26F000EB6
:1016D000A36F81EF0BF0000EA06F000EA16F000E44
:1016E000A26F000EA36F010E7C27000E7D237E23C8
:1016F0007F23000EA827000EA923800EAA23FF0E29
:10170000AB23A8C1B8F1A9C1B9F1AAC1BAF1ABC163
:10171000BBF1B8C170F1B9C171F1BAC172F1BBC10D
:1017200073F170C12AF071C12BF072C12CF073C13A
:101730002DF0A0C14BF0A1C14CF0D8904B364C36E7
:10174000D8904B364C36690E4B24F66E080E4C2062
:10175000F76E0900F5CF2EF00900F5CF2FF0090044
:10176000F5CF30F00A00F5CF31F027EC26F02AC093
:1017700074F12BC075F12CC076F12DC077F1000EFD
:10178000326E000E336E800E346E3F0E356E70C1B9
:1017900005F071C106F072C107F073C108F0A0C175
:1017A0004BF0A1C14CF0D8904B364C36D8904B360C
:1017B0004C36690E4B24F66E080E4C20F76E09006D
:1017C000F5CF01F00900F5CF02F00900F5CF03F0E5
:1017D0000A00F5CF04F01CEC1BF001C036F002C08B
:1017E00037F003C038F004C039F091EC1FF032C07C
:1017F00078F133C079F134C07AF135C07BF174C12E
:1018000011F075C112F076C113F077C114F078C1F0
:1018100015F079C116F07AC117F07BC118F07CEC95
:101820001DF011C05CF112C05DF113C05EF114C077
:101830005FF15CC16CF15DC16DF15EC16EF15FC1C4
:101840006FF16CC1B8F16DC1B9F16EC1BAF16FC180
:10185000BBF1B8C190F1B9C191F1BAC192F1BBC16C
:1018600093F1000E01019015B86FF00E9115B96F4C
:10187000FF0E9215BA6FFF0E9315BB6FB8C16CF1D6
:10188000B9C16DF1BAC16EF1BBC16FF1A8C14BF026
:10189000A9C14CF0AAC14DF0ABC14EF04E344E324E
:1018A0004D324C324B32000E4B144F6EF00E4C1436
:1018B000506EFF0E4D14516EFF0E4E14526E000E00
:1018C0004F10906F000E5010916F000E5110926FDC
:1018D000200E5210936FA0C14BF0A1C14CF0A2C1D9
:1018E0004DF0A3C14EF0150ED8904B364C364D3608
:1018F0004E36E82E74EF0CF090514B244F6E915100
:101900004C20506E92514D20516E93514E20526E8C
:10191000000E4F24B86F000E5020B96F400E5120BA
:10192000BA6F000E5220BB6FB8C168F1B9C169F13E
:10193000BAC16AF1BBC16BF1A0C14BF0A1C14CF0BF
:10194000D8904B364C36D8904B364C36690E4B24DB
:10195000F66E080E4C20F76E0900F5CF2EF0090048
:10196000F5CF2FF00900F5CF30F00A00F5CF31F0B8
:1019700068C12AF069C12BF06AC12CF06BC12DF04F
:1019800027EC26F02AC094F12BC095F12CC096F1DB
:101990002DC097F170C12AF071C12BF072C12CF0EB
:1019A00073C12DF094C12EF095C12FF096C130F087
:1019B00097C131F027EC26F02AC034F12BC035F165
:1019C0002CC036F12DC037F168C115F069C116F091
:1019D0006AC117F06BC118F06CC111F06DC112F043
:1019E0006EC113F06FC114F07CEC1DF011C02EF02D
:1019F00012C02FF013C030F014C031F074C12AF0BF
:101A000075C12BF076C12CF077C12DF027EC26F0B4
:101A10002AC094F12BC095F12CC096F12DC097F1FE
:101A200034C115F035C116F036C117F037C118F0C2
:101A30006CC111F06DC112F06EC113F06FC114F0E2
:101A40007CEC1DF011C02EF012C02FF013C030F04E
:101A500014C031F094C12AF095C12BF096C12CF03E
:101A600097C12DF027EC26F02AC054F12BC055F178
:101A70002CC056F12DC057F154C111F055C112F0D0
:101A800056C113F057C114F078C115F079C116F0A2
:101A90007AC117F07BC118F07CEC1DF011C030F159
:101AA00012C031F113C032F114C033F15CC111F036
:101AB0005DC112F05EC113F05FC114F05CC115F09E
:101AC0005DC116F05EC117F05FC118F07CEC1DF02F
:101AD00011C08CF112C08DF113C08EF114C08FF1C2
:101AE000550E056E320E066E6C0E076E3E0E086EBB
:101AF000420E156EF10E166E530E176E3E0E186ED8
:101B00008CC111F08DC112F08EC113F08FC114F091
:101B10007CEC1DF011C001F012C002F013C003F004
:101B200014C004F01CEC1BF001C0A4F102C0A5F12C
:101B300003C0A6F104C0A7F1050E056EA30E066E44
:101B40008B0E076E3E0E086E8CC115F08DC116F01F
:101B50008EC117F08FC118F0A4C111F0A5C112F009
:101B6000A6C113F0A7C114F07CEC1DF011C001F068
:101B700012C002F013C003F014C004F01CEC1BF000
:101B800001C054F102C055F103C056F104C057F131
:101B9000AB0E056EAA0E066EAA0E076E3E0E086EFE
:101BA0008CC115F08DC116F08EC117F08FC118F0E1
:101BB00054C111F055C112F056C113F057C114F0C1
:101BC0007CEC1DF011C001F012C002F013C003F054
:101BD00014C004F01CEC1BF001C048F102C049F134
:101BE00003C04AF104C04BF1B70E056E6D0E066ED0
:101BF000DB0E076E3E0E086E8CC115F08DC116F01F
:101C00008EC117F08FC118F048C111F049C112F010
:101C10004AC113F04BC114F07CEC1DF011C001F06F
:101C200012C002F013C003F014C004F01CEC1BF04F
:101C300001C038F102C039F103C03AF104C03BF1F0
:101C40009A0E056E990E066E190E076E3F0E086EFF
:101C50008CC115F08DC116F08EC117F08FC118F030
:101C600038C111F039C112F03AC113F03BC114F080
:101C70007CEC1DF011C001F012C002F013C003F0A3
:101C800014C004F01CEC1BF001C000F102C001F113
:101C900003C002F104C003F18CC115F08DC116F030
:101CA0008EC117F08FC118F08CC111F08DC112F0E8
:101CB0008EC113F08FC114F07CEC1DF011C004F143
:101CC00012C005F113C006F114C007F100C111F0F4
:101CD00001C112F002C113F003C114F004C115F0E8
:101CE00005C116F006C117F007C118F07CEC1DF015
:101CF00011C04CF112C04DF113C04EF114C04FF1A0
:101D000030C115F031C116F032C117F033C118F0EF
:101D10005CC105F05DC106F05EC107F05FC108F06F
:101D20006CC101F06DC102F06EC103F06FC104F02F
:101D30001CEC1BF001C011F002C012F003C013F044
:101D400004C014F07CEC1DF011C058F112C059F120
:101D500013C05AF114C05BF14CC101F04DC102F047
:101D60004EC103F04FC104F058C105F059C106F04F
:101D70005AC107F05BC108F01CEC1BF001C04CF12C
:101D800002C04DF103C04EF104C04FF16CC111F01F
:101D90006DC112F06EC113F06FC114F06CC115F07B
:101DA0006DC116F06EC117F06FC118F07CEC1DF01C
:101DB00011C08CF112C08DF113C08EF114C08FF1DF
:101DC000000E056E000E066E400E076E400E086E89
:101DD0008CC101F08DC102F08EC103F08FC104F0FF
:101DE0001CEC1BF001C058F102C059F103C05AF1BC
:101DF00004C05BF158C101F059C102F05AC103F0AF
:101E00005BC104F04CC105F04DC106F04EC107F0B6
:101E10004FC108F01CEC1BF001C068F102C069F171
:101E200003C06AF104C06BF168C1B8F169C1B9F1CE
:101E30006AC1BAF16BC1BBF1B8C190F1B9C191F1FE
:101E4000BAC192F1BBC193F1000E01019015B86FB8
:101E5000F00E9115B96FFF0E9215BA6FFF0E931524
:101E6000BB6FB8C168F1B9C169F1BAC16AF1BBC150
:101E70006BF1000E056E000E066E400E076EC00E72
:101E8000086E68C101F069C102F06AC103F06BC15C
:101E900004F01CEC1BF001C03CF102C03DF103C09A
:101EA0003EF104C03FF18CC12EF08DC12FF08EC1E8
:101EB00030F08FC131F03CC12AF03DC12BF03EC162
:101EC0002CF03FC12DF027EC26F02AC040F12BC0AA
:101ED00041F12CC042F12DC043F14CC12AF04DC15B
:101EE0002BF04EC12CF04FC12DF040C12EF041C15E
:101EF0002FF042C130F043C131F027EC26F02AC068
:101F000034F12BC035F12CC036F12DC037F16CC146
:101F100011F06DC112F06EC113F06FC114F068C101
:101F200015F069C116F06AC117F06BC118F07CECAE
:101F30001DF011C074F112C075F113C076F114C018
:101F400077F168C115F069C116F06AC117F06BC16D
:101F500018F030C111F031C112F032C113F033C1A9
:101F600014F07CEC1DF011C001F012C002F013C09F
:101F700003F014C004F05CC115F05DC116F05EC141
:101F800017F05FC118F034C111F035C112F036C13D
:101F900013F037C114F07CEC1DF011C005F012C035
:101FA00006F013C007F014C008F01CEC1BF001C0D1
:101FB00078F102C079F103C07AF104C07BF174C1F9
:101FC00001F075C102F076C103F077C104F078C169
:101FD00005F079C106F07AC107F07BC108F01CEC6E
:101FE0001BF001C09CF102C09DF103C09EF104C032
:101FF0009FF19CC1B8F19DC1B9F19EC1BAF19FC1D9
:10200000BBF1B8C190F1B9C191F1BAC192F1BBC1B4
:1020100093F1000E01019015B86FF00E9115B96F94
:10202000FF0E9215BA6FFF0E9315BB6FB8C19CF1EE
:10203000B9C19DF1BAC19EF1BBC19FF174C12EF02F
:1020400075C12FF076C130F077C131F09CC12AF014
:102050009DC12BF09EC12CF09FC12DF027EC26F0E6
:102060002AC094F12BC095F12CC096F12DC097F1A8
:1020700078C12AF079C12BF07AC12CF07BC12DF008
:1020800094C12EF095C12FF096C130F097C131F078
:1020900027EC26F02AC064F12BC065F12CC066F154
:1020A0002DC067F19CC111F09DC112F09EC113F0CB
:1020B0009FC114F0000E156E400E166E760E176E50
:1020C0003F0E186E7CEC1DF011C020F112C021F102
:1020D00013C022F114C023F14F0E156E380E166E88
:1020E000760E176E3F0E186E64C111F065C112F0C6
:1020F00066C113F067C114F07CEC1DF011C005F04F
:1021000012C006F013C007F014C008F0C60E156E1A
:10211000230E166EF60E176EB80E186E9CC111F0D7
:102120009DC112F09EC113F09FC114F07CEC1DF014
:1021300011C001F012C002F013C003F014C004F08B
:102140001CEC1BF001C058F102C059F103C05AF158
:1021500004C05BF158C101F059C102F05AC103F04B
:102160005BC104F0A0C14BF0A1C14CF0D8904B363C
:102170004C36D8904B364C36010E4B24F66E080E7A
:102180004C20F76E0900F5CF05F00900F5CF06F0F9
:102190000900F5CF07F00A00F5CF08F01CEC1BF0A2
:1021A00001C024F102C025F103C026F104C027F1CB
:1021B0007CC101F07DC102F07EC103F07FC104F05B
:1021C000010E59EC23F001C0B0F102C0B1F103C01F
:1021D000B2F104C0B3F124C105F025C106F026C157
:1021E00007F027C108F020C101F021C102F022C18F
:1021F00003F023C104F01CEC1BF001C058F102C035
:1022000059F103C05AF104C05BF1A0C14BF0A1C168
:102210004CF0D8904B364C36D8904B364C36090E95
:102220004B24F66E080E4C20F76E0900F5CF05F032
:102230000900F5CF06F00900F5CF07F00A00F5CF49
:1022400008F058C101F059C102F05AC103F05BC156
:1022500004F01CEC1BF001C008F102C009F103C03E
:102260000AF104C00BF108C101F009C102F00AC172
:1022700003F00BC104F0B0C105F0B1C106F0B2C16A
:1022800007F0B3C108F01CEC1BF001C080F102C0E4
:1022900081F103C082F104C083F180C1B8F181C132
:1022A000B9F182C1BAF183C1BBF1B8C190F1B9C132
:1022B00091F1BAC192F1BBC193F1000E01019015E9
:1022C000B86FF00E9115B96FFF0E9215BA6FFF0E31
:1022D0009315BB6FB8C180F1B9C181F1BAC182F168
:1022E000BBC183F1B0C12EF0B1C12FF0B2C130F04B
:1022F000B3C131F080C12AF081C12BF082C12CF032
:1023000083C12DF027EC26F02AC094F12BC095F163
:102310002CC096F12DC097F1A0C14BF0A1C14CF09B
:10232000D8904B364C36D8904B364C36090E4B2451
:10233000F66E080E4C20F76E0900F5CF2EF009005E
:10234000F5CF2FF00900F5CF30F00A00F5CF31F0CE
:1023500094C12AF095C12BF096C12CF097C12DF0B5
:1023600027EC26F02AC040F12BC041F12CC042F1ED
:102370002DC043F120C12EF021C12FF022C130F039
:1023800023C131F040C12AF041C12BF042C12CF0F1
:1023900043C12DF027EC26F02AC00CF12BC00DF123
:1023A0002CC00EF12DC00FF124C12AF025C12BF055
:1023B00026C12CF027C12DF00CC12EF00DC12FF03D
:1023C0000EC130F00FC131F027EC26F02AC01CF10D
:1023D0002BC01DF12CC01EF12DC01FF188C0B8F11B
:1023E00089C0B9F18AC0BAF18BC0BBF1B8C190F114
:1023F000B9C191F1BAC192F1BBC193F1000E0101D3
:102400009015B86FF00E9115B96FFF0E9215BA6F57
:10241000FF0E9315BB6FB8C128F1B9C129F1BAC13C
:102420002AF1BBC12BF180C115F081C116F082C128
:1024300017F083C118F028C12EF029C12FF02AC14E
:1024400030F02BC131F088C02AF089C02BF08AC04F
:102450002CF08BC02DF027EC26F02AC011F02BC0F9
:1024600012F02CC013F02DC014F07CEC1DF011C044
:1024700010F112C011F113C012F114C013F110C108
:1024800001F011C102F012C103F013C104F01CC12C
:1024900015F01DC116F01EC117F01FC118F088C03D
:1024A00011F089C012F08AC013F08BC014F07CECDC
:1024B0001DF011C005F012C006F013C007F014C0E3
:1024C00008F01CEC1BF001C064F102C065F103C010
:1024D00066F104C067F128C111F029C112F02AC1C8
:1024E00013F02BC114F080C115F081C116F082C128
:1024F00017F083C118F07CEC1DF011C09CF112C0E4
:102500009DF113C09EF114C09FF164C101F065C13B
:1025100002F066C103F067C104F09CC105F09DC1E3
:1025200006F09EC107F09FC108F01CEC1BF001C033
:10253000B4F102C0B5F103C0B6F104C0B7F1B4C143
:10254000B8F1B5C1B9F1B6C1BAF1B7C1BBF1B8C103
:10255000ACF1B9C1ADF1BAC1AEF1BBC1AFF101018E
:10256000AFBFBFEF12F0AC05000EAD59000EAE5973
:10257000430EAF59D8A0BFEF12F0C1EF12F0F7EF42
:1025800012F0CA0E156EF20E166E490E176E710E0F
:10259000186E88C111F089C112F08AC113F08BC185
:1025A00014F07CEC1DF011C0A4F112C0A5F113C011
:1025B000A6F114C0A7F1A4C111F0A5C112F0A6C1E3
:1025C00013F0A7C114F0CA0E156EF20E166E490E66
:1025D000176E710E186E7CEC1DF011C084F012C0E5
:1025E00085F013C086F014C087F0BBEF18F0430EDF
:1025F000AF19AC11AD11AE11D8A401EF13F003EF78
:1026000013F076EF13F09CC12EF09DC12FF09EC108
:1026100030F09FC131F0B4C12AF0B5C12BF0B6C182
:102620002CF0B7C12DF027EC26F02AC032F02BC0D9
:1026300033F02CC034F02DC035F03C0E056EAA0EE0
:10264000066E380E076E330E086E64C101F065C168
:1026500002F066C103F067C104F01CEC1BF001C07E
:1026600036F002C037F003C038F004C039F0B7ECE0
:1026700024F0D8B03EEF13F040EF13F038EF14F031
:10268000CA0E156EF20E166E490E176E710E186E8A
:1026900088C111F089C112F08AC113F08BC114F006
:1026A0007CEC1DF011C0A4F112C0A5F113C0A6F17D
:1026B00014C0A7F1A4C111F0A5C112F0A6C113F076
:1026C000A7C114F0CA0E156EF20E166E490E176EE3
:1026D000710E186E7CEC1DF011C084F012C085F0F4
:1026E00013C086F014C087F0BBEF18F0FF0EAC15D6
:1026F0004B6EFF0EAD154C6EFF0EAE154D6E7F0E80
:10270000AF154E6E4EBE91EF13F04B04000E4C58B9
:10271000160E4D58430E4E58D8A091EF13F093EF7C
:1027200013F0C9EF13F0600E156E420E166EA20E76
:10273000176E0D0E186E88C111F089C112F08AC192
:1027400013F08BC114F07CEC1DF011C0A4F112C089
:10275000A5F113C0A6F114C0A7F1A4C111F0A5C141
:1027600012F0A6C113F0A7C114F0600E156E420E50
:10277000166EA20E176E0D0E186E7CEC1DF011C0B9
:1027800084F012C085F013C086F014C087F0BBEF50
:1027900018F0160EAE1909E1C30EAF19AC11AD1148
:1027A000D8A4D5EF13F0D7EF13F038EF14F09CC195
:1027B0002EF09DC12FF09EC130F09FC131F0B4C109
:1027C0002AF0B5C12BF0B6C12CF0B7C12DF027EC23
:1027D00026F02AC032F02BC033F02CC034F02DC0CC
:1027E00035F064C136F065C137F066C138F067C1B5
:1027F00039F0B7EC24F0D8A000EF14F002EF14F099
:1028000038EF14F0600E156E420E166EA20E176EA3
:102810000D0E186E88C111F089C112F08AC113F033
:102820008BC114F07CEC1DF011C0A4F112C0A5F115
:1028300013C0A6F114C0A7F1A4C111F0A5C112F0F4
:10284000A6C113F0A7C114F0600E156E420E166EED
:10285000A20E176E0D0E186E7CEC1DF011C084F0E8
:1028600012C085F013C086F014C087F0BBEF18F0DB
:10287000FF0E0101AC152C6FFF0EAD152D6FFF0E75
:10288000AE152E6F7F0EAF152F6F170E4B6E2CC12E
:102890004CF02DC14DF02EC14EF02FC14FF04B66C4
:1028A00054EF14F05CEF14F04F344F324E324D328F
:1028B0004C324B2E4FEF14F0810E4C240101A06FCF
:1028C000FF0E4D20A16FFF0E4E20A26FFF0E4F2076
:1028D000A36F000E7C6F000E7D6F000E7E6F000EEA
:1028E0007F6F2FBF80EF14F02C05000E2D59000EC6
:1028F0002E593F0E2F59D8A080EF14F082EF14F01C
:1029000062EF15F0A0C14BF0010E4B26000E4C6E8D
:10291000000E4D6E800E4E6E000E4F6E4B6693EFA6
:1029200014F09BEF14F04F344F324E324D324C3294
:102930004B2E8EEF14F00101AC514C247C6FAD5145
:102940004D207D6FAE514E207E6FAF514F207F6F77
:10295000810E4B6EFF0E4C6EFF0E4D6EFF0E4E6ED7
:10296000170E4F6E7CC150F07DC151F07EC152F008
:102970007FC153F04F66BFEF14F0C7EF14F053342C
:1029800053325232513250324F2EBAEF14F050506F
:102990004B240101A06F000E4C20A16F000E4D20B2
:1029A000A26F000E4E20A36FA0C14BF0FF0E4C6E25
:1029B000FF0E4D6E7F0E4E6E000E4F6E4B66E3EFB8
:1029C00014F0EBEF14F04F344F324E324D324C32A4
:1029D0004B2EDEEF14F04C1C506E4D1C516E4E1CF5
:1029E000526E4F1C536E01017C515014B86F7D51D3
:1029F0005114B96F7E515214BA6F7F515314BB6F8B
:102A0000B8C1B0F1B9C1B1F1BAC1B2F1BBC1B3F152
:102A1000A05117084B6EFF0E7C154C6EFF0E7D15F6
:102A20004D6E7F0E7E154E6E000E7F154F6E000EA2
:102A30004C10506E000E4D10516E800E4E10526EA6
:102A4000000E4F10536E4B6628EF15F030EF15F067
:102A5000533453325232513250324B2E23EF15F051
:102A600050C07CF151C07DF152C07EF153C07FF166
:102A70000101AFBF40EF15F03EEF15F048EF15F044
:102A80007F1F7E1F7D1F7C6D000E7D237E237F2395
:102A90009CC12AF09DC12BF09EC12CF09FC12DF04E
:102AA000B0C12EF0B1C12FF0B2C130F0B3C131F0DE
:102AB00027EC26F02AC09CF12BC09DF12CC09EF182
:102AC0002DC09FF164C101F065C102F066C103F041
:102AD00067C104F09CC105F09DC106F09EC107F0DE
:102AE0009FC108F01CEC1BF001C0B0F102C0B1F1B5
:102AF00003C0B2F104C0B3F1B0C1B8F1B1C1B9F1D2
:102B0000B2C1BAF1B3C1BBF1B8C190F1B9C191F191
:102B1000BAC192F1BBC193F1000E01019015B86FDB
:102B2000800E9115B96FFF0E9215BA6FFF0E9315B7
:102B3000BB6FB8C1B0F1B9C1B1F1BAC1B2F1BBC19B
:102B4000B3F1B0C111F0B1C112F0B2C113F0B3C111
:102B500014F0000E156E720E166E310E176E3F0ECB
:102B6000186E7CEC1DF011C074F112C075F113C029
:102B700076F114C077F19CC12EF09DC12FF09EC15B
:102B800030F09FC131F0B0C12AF0B1C12BF0B2C119
:102B90002CF0B3C12DF027EC26F02AC094F12BC005
:102BA00095F12CC096F12DC097F1180E156E720E8E
:102BB000166E310E176E3F0E186E94C12EF095C131
:102BC0002FF096C130F097C131F064C12AF065C191
:102BD0002BF066C12CF067C12DF027EC26F02AC03F
:102BE00011F02BC012F02CC013F02DC014F07CECAF
:102BF0001DF011C014F112C015F113C016F114C06C
:102C000017F114C101F015C102F016C103F017C18C
:102C100004F08C0E156EBE0E166EBF0E176E350EBE
:102C2000186EB0C111F0B1C112F0B2C113F0B3C14E
:102C300014F07CEC1DF011C005F012C006F013C0BA
:102C400007F014C008F01CEC1BF001C078F102C0C2
:102C500079F103C07AF104C07BF174C101F075C150
:102C600002F076C103F077C104F078C105F079C1B4
:102C700006F07AC107F07BC108F01CEC1BF001C024
:102C8000B4F102C0B5F103C0B6F104C0B7F174C12C
:102C90002EF075C12FF076C130F077C131F0B4C19C
:102CA0002AF0B5C12BF0B6C12CF0B7C12DF027EC3E
:102CB00026F02AC094F12BC095F12CC096F12DC0BE
:102CC00097F178C12AF079C12BF07AC12CF07BC141
:102CD0002DF094C12EF095C12FF096C130F097C120
:102CE00031F027EC26F02AC044F12BC045F12CC06E
:102CF00046F12DC047F1B4C111F0B5C112F0B6C113
:102D000013F0B7C114F0B4C115F0B5C116F0B6C1D7
:102D100017F0B7C118F07CEC1DF011C0B0F112C073
:102D2000B1F113C0B2F114C0B3F10E0E056EEA0E8C
:102D3000066EDD0E076EB50E086E4C0E156EBB0EE0
:102D4000166E310E176E330E186EB0C111F0B1C190
:102D500012F0B2C113F0B3C114F07CEC1DF011C03D
:102D600001F012C002F013C003F014C004F01CEC18
:102D70001BF001C0A4F102C0A5F103C0A6F104C07C
:102D8000A7F1550E056EB30E066E8A0E076E380E4D
:102D9000086EB0C115F0B1C116F0B2C117F0B3C1E1
:102DA00018F0A4C111F0A5C112F0A6C113F0A7C17B
:102DB00014F07CEC1DF011C001F012C002F013C041
:102DC00003F014C004F01CEC1BF001C054F102C06D
:102DD00055F103C056F104C057F1610E056E0B0E9C
:102DE000066E360E076EBB0E086EB0C115F0B1C18F
:102DF00016F0B2C117F0B3C118F054C111F055C1AB
:102E000012F056C113F057C114F07CEC1DF011C044
:102E100001F012C002F013C003F014C004F01CEC67
:102E20001BF001C048F102C049F103C04AF104C0DF
:102E30004BF1AB0E056EAA0E066E2A0E076E3E0E05
:102E4000086EB0C115F0B1C116F0B2C117F0B3C130
:102E500018F048C111F049C112F04AC113F04BC13A
:102E600014F07CEC1DF011C001F012C002F013C090
:102E700003F014C004F01CEC1BF001C038F102C0D8
:102E800039F103C03AF104C03BF1B4C12AF0B5C135
:102E90002BF0B6C12CF0B7C12DF0B0C115F0B1C107
:102EA00016F0B2C117F0B3C118F038C111F039C132
:102EB00012F03AC113F03BC114F07CEC1DF011C0CC
:102EC0002EF012C02FF013C030F014C031F027ECF8
:102ED00026F02AC080F12BC081F12CC082F12DC0D8
:102EE00083F1000E056E000E066E000E076EC00E1A
:102EF000086E80C101F081C102F082C103F083C17C
:102F000004F01CEC1BF001C036F002C037F003C027
:102F100038F004C039F080C115F081C116F082C1CB
:102F200017F083C118F0B4C111F0B5C112F0B6C1E9
:102F300013F0B7C114F07CEC1DF011C032F012C0D8
:102F400033F013C034F014C035F091EC1FF032C0F0
:102F50003CF133C03DF134C03EF135C03FF144C1D6
:102F600005F045C106F046C107F047C108F044C16D
:102F700015F045C116F046C117F047C118F0B4C1AD
:102F800011F0B5C112F0B6C113F0B7C114F07CEC6A
:102F90001DF011C001F012C002F013C003F014C004
:102FA00004F01CEC1BF001C018F102C019F103C0C1
:102FB0001AF104C01BF13CC12AF03DC12BF03EC107
:102FC0002CF03FC12DF018C12EF019C12FF01AC1FD
:102FD00030F01BC131F027EC26F02AC04CF12BC099
:102FE0004DF12CC04EF12DC04FF1B4C12EF0B5C142
:102FF0002FF0B6C130F0B7C131F04CC12AF04DC14D
:103000002BF04EC12CF04FC12DF027EC26F02AC03A
:1030100094F12BC095F12CC096F12DC097F1000EC4
:103020002A6E000E2B6E800E2C6E3F0E2D6E94C1FC
:103030002EF095C12FF096C130F097C131F027ECFA
:1030400026F02AC0B4F12BC0B5F12CC0B6F12DC0CA
:10305000B7F1B4C1B8F1B5C1B9F1B6C1BAF1B7C1F0
:10306000BBF1B8C1ACF1B9C1ADF1BAC1AEF1BBC1F0
:10307000AFF17CC14BF07DC14CF07EC14DF07FC102
:103080004EF0170ED8904B364C364D364E36E82E55
:1030900042EF18F04B500101AC274C50AD234D507E
:1030A000AE234E50AF23170E4B6EACC14CF0ADC1EA
:1030B0004DF0AEC14EF0AFC14FF04B6662EF18F06D
:1030C0006AEF18F04F344F324E324D324C324B2EA5
:1030D0005DEF18F04FBE79EF18F04F504E104D10C5
:1030E00006E14C04D8B077EF18F079EF18F091EFC3
:1030F00018F0B4C12AF0B5C12BF0B6C12CF0B7C19D
:103100002DF07CC12EF07DC12FF05EEC21F02AC0A5
:10311000B4F12BC0B5F12CC0B6F12DC0B7F1A1EFC1
:1031200018F0ACC1B8F1ADC1B9F1AEC1BAF1AFC1DF
:10313000BBF1B8C1B4F1B9C1B5F1BAC1B6F1BBC107
:10314000B7F188C111F089C112F08AC113F08BC1A7
:1031500014F0B4C115F0B5C116F0B6C117F0B7C17F
:1031600018F07CEC1DF011C084F012C085F013C083
:1031700086F014C087F012003EC068F03FC069F0CE
:1031800040C06AF041C06BF068C080F069C081F057
:103190006AC082F06BC083F0000E00018015426EA1
:1031A000000E8115436E800E8215446E7F0E8315CE
:1031B000456E800E441809E17F0E451842104310F9
:1031C000D8A4E5EF18F0E7EF18F015EF19F03EC0BE
:1031D00015F03FC016F040C017F041C018F03EC0D7
:1031E00011F03FC012F040C013F041C014F07CEC6D
:1031F0001DF011C001F012C002F013C003F014C0A2
:1032000004F03EC005F03FC006F040C007F041C0EA
:1032100008F01CEC1BF001C03EF002C03FF003C000
:1032200040F004C041F01BEF1BF083BF24EF19F006
:1032300083518211811106E18005D8B022EF19F087
:1032400024EF19F060EF19F0FF0E8015426EFF0EAB
:103250008115436EFF0E8215446E7F0E8315456EF9
:103260004250431044104510D8A439EF19F03BEFF9
:1032700019F045EF19F03EC03EF03FC03FF040C0AE
:1032800040F041C041F01BEF1BF083BF4CEF19F041
:103290004AEF19F060EF19F0000E976F210E966F4C
:1032A0007D0E016E080E026E80EC26F001C03EF02D
:1032B00002C03FF003C040F004C041F01BEF1BF020
:1032C000170E426E80C043F081C044F082C045F0CA
:1032D00083C046F042666FEF19F077EF19F046347D
:1032E0004632453244324332422E6AEF19F043C02F
:1032F00078F044C079F045C07AF046C07BF0000118
:10330000785179117A117B11D8A489EF19F08BEFDC
:1033100019F0BBEF19F0000E646F000E656F000E20
:10332000666F000E676FA0EF19F0D8908037813775
:1033300082378337010E6427000E652366236723D7
:1033400082AFA5EF19F0A7EF19F095EF19F0FF0E76
:103350006425426EFF0E6521436EFF0E6621446EAA
:10336000FF0E6721456E4250785F4350795B4450B1
:103370007A5B45507B5B810E7827FF0E7923FF0E29
:103380007A23FF0E7B23FF0E8015426EFF0E811500
:10339000436E7F0E8215446E000E8315456E000E3F
:1033A0004210806F000E4310816F800E4410826FB8
:1033B000000E4510836F78A1E0EF19F0E2EF19F0ED
:1033C000EAEF19F0805180278151812382518223B5
:1033D000835183237B357B337A3379337833805140
:1033E0008027815181238251822383518323000EC0
:1033F000606F000E616F000E626F000E636F60C041
:103400006CF061C06DF062C06EF063C06FF0000ED2
:103410007C6F000E7D6F000E7E6F010E7F6F59EF87
:103420001AF060517C25706F61517D21716F62517E
:103430007E21726F63517F21736F7051805D715176
:103440008159725182598351800A426E7351800AA8
:103450004258D8A02EEF1AF030EF1AF04CEF1AF0C5
:1034600070517C25606F71517D21616F72517E2199
:10347000626F73517F21636F7051805F7151815B07
:103480007251825B7351835B7C516C277D516D233C
:103490007E516E237F516F2380518027815181237C
:1034A0008251822383518323D8907F337E337D33AF
:1034B0007C337C517D117E117F11D8A462EF1AF00C
:1034C00064EF1AF011EF1AF080518111821183110B
:1034D000D8B46DEF1AF06FEF1AF0D0EF1AF0000EBB
:1034E000746F000E756F800E766F3F0E776F74C02D
:1034F00032F075C033F076C034F077C035F0000E8E
:10350000366E000E376E800E386E3F0E396EB7EC99
:1035100024F0D8A08EEF1AF090EF1AF0D0EF1AF046
:10352000000E0001746F000E756F800E766F3F0EF7
:10353000776F000E326E000E336E800E346E3F0ECB
:10354000356E74C036F075C037F076C038F077C08D
:1035500039F0B7EC24F0D8B0B0EF1AF0B2EF1AF0AF
:10356000BBEF1AF0020E00016C27000E6D236E23D4
:103570006F23D0EF1AF0010E00016C15426E000EA1
:103580006D15436E000E6E15446E000E6F15456E80
:1035900042506C2743506D2344506E2345506F2397
:1035A0006CC042F06DC043F06EC044F06FC045F097
:1035B00045344532443243324232000E4224000147
:1035C000806F000E4320816F000E4420826F3F0EFB
:1035D0004520836F78C042F079C043F07AC044F050
:1035E0007BC045F0170ED8904236433644364536F8
:1035F000E82EF3EF1AF042508027435081234450C5
:1036000082234550832380C068F081C069F082C066
:103610006AF083C06BF068C074F069C075F06AC06E
:1036200076F06BC077F074C03EF075C03FF076C0A6
:1036300040F077C041F012000450800B0D6E045032
:1036400004240F6E03AE27EF1BF029EF1BF02AEFC7
:103650001BF00F800F50D8B430EF1BF032EF1BF08F
:1036600047EF1BF00F28D8A438EF1BF03AEF1BF000
:1036700042EF1BF0000E016E000E026E000E036E94
:10368000000E046E038E000E046E4FEF1BF0000E52
:10369000016E000E026E000E036E000E046E0850E6
:1036A000800B0E6E0D500E18D8B459EF1BF05BEF67
:1036B0001BF05CEF1BF00D8C085008240E6E07AE5B
:1036C00064EF1BF066EF1BF067EF1BF00E800E50EF
:1036D000D8B46DEF1BF06FEF1BF084EF1BF00E28DA
:1036E000D8A475EF1BF077EF1BF07FEF1BF0000EF7
:1036F000056E000E066E000E076E000E086E078E39
:10370000000E086E8CEF1BF0000E056E000E066EAC
:10371000000E076E000E086E0F500E5CD8B093EFCF
:103720001BF095EF1BF0BCEF1BF00DAC9AEF1BF0FC
:103730009CEF1BF09EEF1BF0800E0D1A0FC010F0D7
:103740000EC00FF010C00EF001C010F005C001F067
:1037500010C005F002C010F006C002F010C006F064
:1037600003C010F007C003F010C007F004C010F051
:1037700008C004F010C008F0000E106E0F500EC00C
:1037800009F00A6A095E000E0A5A0ABED1EF1BF060
:103790000A5009E11A0E095CD8A0D1EF1BF0D3EF53
:1037A0001BF00AEF1CF00150021003100410D8A403
:1037B000DCEF1BF0DFEF1BF0010EE0EF1BF0000E63
:1037C000106E000E016E000E026E000E036E000EF3
:1037D000046E0EC00FF013EF1CF010A0F2EF1BF000
:1037E000F4EF1BF0FAEF1BF0D89010300109106EC7
:1037F000FCEF1BF0D890103201A001EF1CF003EF9A
:103800001CF004EF1CF0108E043404320332023238
:1038100001320F2A0E500F5CD8A011EF1CF013EFED
:103820001CF0EDEF1BF00DBC18EF1CF01AEF1CF0B4
:103830005AEF1CF00F50D8A420EF1CF022EF1CF020
:103840002CEF1CF0000E016E000E026E000E036ED7
:10385000000E046E7BEF1DF005500126065002227B
:10386000075003220850042204A039EF1CF03BEF5C
:103870001CF0E7EF1CF010A040EF1CF042EF1CF032
:1038800048EF1CF0D89010300109106E4AEF1CF080
:10389000D890103201A04FEF1CF051EF1CF052EF06
:1038A0001CF0108E043404320332023201320F2A2B
:1038B000E7EF1CF00550015C065002580750035812
:1038C0000450800A096E0850800A0958D8B06BEF7E
:1038D0001CF06DEF1CF098EF1CF00150055C096EB8
:1038E000025006580A6E035007580B6E04500858D1
:1038F0000C6EFF0E0924016EFF0E0A20026EFF0EF1
:103900000B20036EFF0E0C20046E800E0D1A106C3F
:103910001050D8A48EEF1CF090EF1CF0A0EF1CF01C
:10392000010E0126000E022203220422A0EF1CF049
:103930000550015E0650025A0750035A0850045AB7
:103940000150021003100410D8A4A9EF1CF0ABEF33
:103950001CF0E0EF1CF01050D8A4B1EF1CF0B3EF56
:103960001CF0E0EF1CF0000E016E000E026E000E67
:10397000036E000E046E7BEF1DF0D8900136023608
:103980000336043610AEC7EF1CF0C9EF1CF0CAEFC7
:103990001CF0018010A0CFEF1CF0D1EF1CF0D5EF90
:1039A0001CF0D8801036D7EF1CF0D89010360F508E
:1039B000D8B4DDEF1CF0DFEF1CF0E0EF1CF00F06D9
:1039C00003AEE5EF1CF0E7EF1CF0BDEF1CF0000EBE
:1039D0000E6E10AEEEEF1CF0F0EF1CF008EF1DF0D5
:1039E00010C009F07F0E0916D8B4F9EF1CF0FBEFF8
:1039F0001CF0FFEF1CF0010E0E6E08EF1DF001A091
:103A000004EF1DF006EF1DF008EF1DF0FBEF1CF0BA
:103A10000E50D8B40EEF1DF010EF1DF03BEF1DF06F
:103A2000010E0126000E02220322042204A01BEF35
:103A30001DF01DEF1DF03BEF1DF001C009F002C0AD
:103A40000AF003C00BF004C00CF00C340C320B3243
:103A50000A32093209C001F00AC002F00BC003F0BB
:103A60000CC004F00F28D8B438EF1DF03AEF1DF069
:103A70003BEF1DF00F2A0F28D8B441EF1DF043EFA4
:103A80001DF04BEF1DF00F50D8A449EF1DF04BEF88
:103A90001DF05DEF1DF0000E016E000E026E000EB7
:103AA000036E000E046E0F50D8A459EF1DF05BEFAB
:103AB0001DF05DEF1DF0000E0D6E0FA062EF1DF00A
:103AC00064EF1DF067EF1DF0038E68EF1DF0039E9D
:103AD000D8900F30046E0DAE70EF1DF072EF1DF038
:103AE00073EF1DF0048E01C001F002C002F003C0AC
:103AF00003F004C004F012001450800B1D6E14502B
:103B00001424236E13AE87EF1DF089EF1DF08AEFAA
:103B10001DF023802350D8B490EF1DF092EF1DF0DC
:103B2000A5EF1DF02328D8A498EF1DF09AEF1DF003
:103B3000A2EF1DF0000E116E000E126E000E136E3D
:103B4000000E146E138EADEF1DF0000E116E000E00
:103B5000126E000E136E000E146E1850800B1D1A9C
:103B600018501824226E17AEB8EF1DF0BAEF1DF0F2
:103B7000BBEF1DF022802250D8B4C1EF1DF0C3EF7F
:103B80001DF0D6EF1DF02228D8A4C9EF1DF0CBEF11
:103B90001DF0D3EF1DF0000E156E000E166E000E18
:103BA000176E000E186E178EDEEF1DF0000E156EEC
:103BB000000E166E000E176E000E186E2250D8B44E
:103BC000E4EF1DF0E6EF1DF0EEEF1DF02350D8A45A
:103BD000ECEF1DF0EEEF1DF0F8EF1DF0000E116E92
:103BE000000E126E000E136E000E146E90EF1FF09A
:103BF00017501102F3CF28F0F4CF29F028501E6E91
:103C00001F6A206A216A2950246E256A266A276A5B
:103C100016501202F3CF28F0F4CF29F028501E26B8
:103C2000000E1F222022212229502426000E2522A8
:103C30002622272215501302F3CF28F0F4CF29F0C3
:103C400028501E26000E1F22202221222950242621
:103C5000000E25222622272220C021F01FC020F09E
:103C60001EC01FF01E6A15501202F3CF28F0F4CFC9
:103C700029F028501E2629501F22000E2022000E57
:103C8000212216501102F3CF28F0F4CF29F028504A
:103C90001E2629501F22000E2022000E212220C0A5
:103CA00021F01FC020F01EC01FF01E6A1550110227
:103CB000F3CF28F0F4CF29F028501E2629501F22D8
:103CC000000E2022000E212217501202F3CF28F0FE
:103CD000F4CF29F02850242629502522000E262230
:103CE000000E272216501302F3CF28F0F4CF29F04C
:103CF0002850242629502522000E2622000E272295
:103D000017501302F3CF28F0F4CF29F02850196E82
:103D100029501A6E1B6A1C6A1BC01CF01AC01BF0CB
:103D200019C01AF0196A195024261A5025221B505E
:103D300026221C5027221EC019F01FC01AF020C0D6
:103D40001BF021C01CF0190EABEF1EF0D8901C32F6
:103D50001B321A321932E82EA6EF1EF01950242613
:103D60001A5025221B5026221C50272220C021F049
:103D70001FC020F01EC01FF01E6A225023C019F081
:103D80001A6A1926000E1A22820E1924286EFF0EB6
:103D90001A20296EE1EF1EF0D890243625362636FB
:103DA000273621AED6EF1EF0D8EF1EF0D9EF1EF069
:103DB0002480D8901E361F36203621362806D8A0FB
:103DC000290626AEE6EF1EF0E8EF1EF0CCEF1EF05F
:103DD000000E226E21AEEFEF1EF0F1EF1EF015EF98
:103DE0001FF0FF0E1E14196EFF0E1F141A6EFF0E29
:103DF00020141B6E7F0E21141C6E19501A101B10FC
:103E00001C10D8B406EF1FF008EF1FF00CEF1FF0E6
:103E1000010E226E15EF1FF024A011EF1FF013EF1B
:103E20001FF015EF1FF008EF1FF02250D8B41BEF62
:103E30001FF01DEF1FF041EF1FF0010E2426000EB2
:103E400025222622272227A028EF1FF02AEF1FF085
:103E500041EF1FF024C019F025C01AF026C01BF056
:103E600027C01CF01C341C321B321A32193219C004
:103E700024F01AC025F01BC026F01CC027F0284AE9
:103E8000292A29BE4CEF1FF0295008E12828D8A084
:103E90004CEF1FF04EEF1FF058EF1FF0000E246E96
:103EA000000E256E800E266E7F0E276E86EF1FF0A9
:103EB00029BE65EF1FF0295006E12804D8B063EF52
:103EC0001FF065EF1FF071EF1FF0000E246E000E63
:103ED000256E000E266E000E276E000E1D6E86EFFC
:103EE0001FF028C023F0FF0E2416FF0E25167F0EAC
:103EF0002616000E271623A080EF1FF082EF1FF07A
:103F000083EF1FF0268ED8902330276E1D50271286
:103F100024C011F025C012F026C013F027C014F001
:103F200012003550800B426E35503524496E34AE48
:103F30009CEF1FF09EEF1FF09FEF1FF0498049504C
:103F4000D8B4A5EF1FF0A7EF1FF0BCEF1FF0492872
:103F5000D8A4ADEF1FF0AFEF1FF0B7EF1FF0000ECA
:103F6000326E000E336E000E346E000E356E348EDF
:103F7000000E356EC4EF1FF0000E326E000E336E71
:103F8000000E346E000E356E3950800B421A3950D7
:103F900039244A6E38AECFEF1FF0D1EF1FF0D2EFC9
:103FA0001FF04A804A50D8B4D8EF1FF0DAEF1FF064
:103FB000EFEF1FF04A28D8A4E0EF1FF0E2EF1FF068
:103FC000EAEF1FF0000E366E000E376E000E386EF0
:103FD000000E396E388E000E396EF7EF1FF0000EAE
:103FE000366E000E376E000E386E000E396E36508B
:103FF000371038103910D8A400EF20F002EF20F06D
:104000001AEF20F0000E326E000E336E000E346E8A
:10401000000E356E800E34127F0E3512425035126E
:1040200032C032F033C033F034C034F035C035F034
:104030005DEF21F04950D8A420EF20F022EF20F0CE
:104040002CEF20F0000E326E000E336E000E346E38
:10405000000E356E5DEF21F04A5049C03AF03B6AE0
:104060003A5E000E3B5A7F0E3A24436E000E3B2010
:10407000446E32C03EF033C03FF034C040F035C033
:1040800041F0000E326E000E336E000E346E000EE4
:10409000356E000E456E000E466E000E476E000E29
:1040A000486E000E4A6E8DEF20F04A50D8B45BEF98
:1040B00020F05DEF20F074EF20F0D8903E363F36D0
:1040C00040364136D890323633363436353648AEFF
:1040D0006CEF20F06EEF20F06FEF20F03280D89080
:1040E000453646364736483636503E5C37503F58A0
:1040F0003850405839504158D8A081EF20F083EF14
:1041000020F08CEF20F0488C36503E5E37503F5AFE
:104110003850405A3950415A4A2A190E4A6493EF8E
:1041200020F095EF20F055EF20F03E503F1040106A
:104130004110D8B49EEF20F0A0EF20F0B8EF20F0AF
:104140004580B8EF20F0D8903236333634363536E5
:1041500048AEADEF20F0AFEF20F0B0EF20F03280AE
:10416000D89045364636473648364306D8A04406EA
:1041700034AEBDEF20F0BFEF20F0A3EF20F0000E33
:104180004A6E48AEC6EF20F0C8EF20F0ECEF20F00A
:10419000FF0E45143A6EFF0E46143B6EFF0E471499
:1041A0003C6E7F0E48143D6E3A503B103C103D1063
:1041B000D8B4DDEF20F0DFEF20F0E3EF20F0010EC8
:1041C0004A6EECEF20F032A0E8EF20F0EAEF20F0AA
:1041D000ECEF20F0DFEF20F04A50D8B4F2EF20F0FF
:1041E000F4EF20F018EF21F0010E3226000E3322FA
:1041F0003422352235A0FFEF20F001EF21F018EF37
:1042000021F032C03AF033C03BF034C03CF035C04E
:104210003DF03D343D323C323B323A323AC032F02E
:104220003BC033F03CC034F03DC035F0434A442A33
:1042300044BE23EF21F0445008E14328D8A023EFE7
:1042400021F025EF21F030EF21F0000E446E43689D
:10425000000E326E000E336E000E346E000E356EA0
:1042600044BE3DEF21F0445006E14304D8B03BEF9B
:1042700021F03DEF21F04BEF21F0000E446E000ED7
:10428000436E000E326E000E336E000E346E000E62
:10429000356E000E426E43C049F049A052EF21F046
:1042A00054EF21F057EF21F0348E58EF21F0349E77
:1042B000D8904930356E0EEF20F012002AC038F049
:1042C0002BC039F02CC03AF02DC03BF02FBE72EF5E
:1042D00021F02F5009E1800E2E5CD8A072EF21F062
:1042E00074EF21F0D2EF21F038C011F039C012F094
:1042F0003AC013F03BC014F0000E156E000E166E9F
:10430000000E176E7F0E186E7CEC1DF011C038F099
:1043100012C039F013C03AF014C03BF0810E2E26C3
:10432000FF0E2F222FBE9EEF21F02F5009E1800EAD
:104330002E5CD8A09EEF21F0A0EF21F03CEF22F000
:1043400038C011F039C012F03AC013F03BC014F07D
:10435000000E156E000E166E000E176E7F0E186E94
:104360007CEC1DF011C038F012C039F013C03AF0E7
:1043700014C03BF0810E2E26FF0E2F222FBECAEF57
:1043800021F02F5009E1800E2E5CD8A0CAEF21F059
:10439000CCEF21F03CEF22F0000E2F6E7F0E2E6E40
:1043A0003CEF22F02FAEDEEF21F0820E2E5CFF0EEE
:1043B0002F58D8B0DEEF21F0E0EF21F03CEF22F0F3
:1043C00038C011F039C012F03AC013F03BC014F0FD
:1043D000000E156E000E166E800E176E0C0E186E07
:1043E0007CEC1DF011C038F012C039F013C03AF067
:1043F00014C03BF0660E2E26000E2F222FAE0AEFC1
:1044000022F0820E2E5CFF0E2F58D8B00AEF22F059
:104410000CEF22F03CEF22F038C011F039C012F05E
:104420003AC013F03BC014F0000E156E000E166E6D
:10443000800E176E0C0E186E7CEC1DF011C038F05B
:1044400012C039F013C03AF014C03BF0660E2E26AD
:10445000000E2F222FAE36EF22F0820E2E5CFF0EC2
:104460002F58D8B036EF22F038EF22F03CEF22F090
:10447000FF0E2F6E820E2E6E7F0E2E24306E000EDB
:104480002F20316E326A336A170ED89030363136AB
:1044900032363336E82E45EF22F030C034F031C0EA
:1044A00035F032C036F033C037F034C011F035C0CB
:1044B00012F036C013F037C014F038C015F039C010
:1044C00016F03AC017F03BC018F07CEC1DF011C09C
:1044D0002AF012C02BF013C02CF014C02DF02AC00B
:1044E0002AF02BC02BF02CC02CF02DC02DF0120088
:1044F000000E036E03C001F0010E026E012A83EF6D
:1045000022F0D8900236012E81EF22F00250801264
:10451000070E016E7D0EE82EFED7012EFCD700F0AF
:1045200003C001F0010E026E012A99EF22F0D8902B
:104530000236012E97EF22F00250FF0A8016070E76
:10454000016E7D0EE82EFED7012EFCD700F0032A67
:10455000060E0364AEEF22F0B0EF22F07AEF22F005
:10456000070E046E04C001F0010E026E012ABBEFBB
:1045700022F0D8900236012EB9EF22F002508012BC
:10458000070E016E7D0EE82EFED7012EFCD700F03F
:1045900004C001F0010E026E012AD1EF22F0D89082
:1045A0000236012ECFEF22F00250FF0A8016070ECE
:1045B000016E7D0EE82EFED7012EFCD700F004061A
:1045C0000450D8A4E6EF22F0E8EF22F0B2EF22F098
:1045D000000E056E05C001F0010E026E012AF3EF18
:1045E00022F0D8900236012EF1EF22F00250801214
:1045F000070E016E7D0EE82EFED7012EFCD700F0CF
:1046000005C001F0010E026E012A09EF23F0D890D7
:104610000236012E07EF23F00250FF0A8016070E24
:10462000016E7D0EE82EFED7012EFCD700F0052A84
:10463000060E05641EEF23F020EF23F0EAEF22F0D0
:10464000070E066E06C001F0010E026E012A2BEF66
:1046500023F0D8900236012E29EF23F00250801269
:10466000070E016E7D0EE82EFED7012EFCD700F05E
:1046700006C001F0010E026E012A41EF23F0D8902E
:104680000236012E3FEF23F00250FF0A8016070E7C
:10469000016E7D0EE82EFED7012EFCD700F0060637
:1046A0000650D8A456EF23F058EF23F022EF23F062
:1046B0001200096E0950D8B460EF23F062EF23F0C6
:1046C00084EF23F004BE69EF23F067EF23F084EF5B
:1046D00023F001C005F002C006F003C007F004C0DB
:1046E00008F0051E061E071E081E052A000E0622DB
:1046F0000722082205C00BF006C00CF007C00DF021
:1047000008C00EF08CEF23F001C00BF002C00CF0DB
:1047100003C00DF004C00EF001500210031004108D
:10472000D8A495EF23F097EF23F0A1EF23F0000E2C
:10473000016E000E026E000E036E000E046E32EF6C
:1047400024F0960E0A6EABEF23F00A2AD8900E32B0
:104750000D320C320B32000E0B14056E000E0C14D1
:10476000066E000E0D14076EFE0E0E14086E055038
:10477000061007100810D8A4C0EF23F0C2EF23F0F2
:10478000A5EF23F0D0EF23F00A2A010E0B26000E2E
:104790000C220D220E22D8900E320D320C320B322A
:1047A000000E0B14056E000E0C14066E000E0D1498
:1047B000076EFF0E0E14086E055006100710081045
:1047C000D8A4E5EF23F0E7EF23F0C4EF23F0EFEFF9
:1047D00023F00A06D8900B360C360D360E360DBE79
:1047E000F4EF23F0F6EF23F0FEEF23F0020E0A6061
:1047F000FCEF23F0FEEF23F0E9EF23F00AB003EF24
:1048000024F005EF24F006EF24F00D9ED8900A3234
:104810000AC005F0066A076A086A05C008F0076A58
:10482000066A056A05500B1206500C1207500D124D
:1048300008500E120950D8B420EF24F022EF24F0D3
:104840002AEF24F004BE29EF24F027EF24F02AEF0A
:1048500024F00E8E0BC001F00CC002F00DC003F06E
:104860000EC004F0120000018E358F35596E59507C
:10487000D8A43DEF24F03FEF24F049EF24F0000EE0
:104880008C6F000E8D6F000E8E6F000E8F6FB6EF67
:1048900024F08CC054F08DC055F08EC056F08FC0FF
:1048A00057F0200E59EF24F0D89057325632553237
:1048B0005432E82E54EF24F05450586E8E8FFF0E71
:1048C0008C17FF0E8D17FF0E8E17000E8F17960E8A
:1048D000595E59BE70EF24F06EEF24F086EF24F09D
:1048E0005950800A970FD8B078EF24F07AEF24F06F
:1048F0007CEF24F03FEF24F0D8908F338E338D334C
:104900008C33593E7CEF24F09EEF24F01F0E596447
:104910008CEF24F08EEF24F096EF24F03FEF24F09C
:10492000D8908C378D378E378F3759065950D8A489
:104930009CEF24F09EEF24F090EF24F05850D8B470
:10494000A4EF24F0A6EF24F0AEEF24F08F1F8E1F0B
:104950008D1F8C6D000E8D238E238F238CC08CF0C9
:104960008DC08DF08EC08EF08FC08FF01200000EC3
:1049700032143A6E000E33143B6E800E34143C6ECB
:104980007F0E35143D6E3A503B103C103D10D8A4BC
:10499000CCEF24F0CEEF24F0D6EF24F0000E326EF0
:1049A000000E336E000E346E000E356E000E36149F
:1049B0003A6E000E37143B6E800E38143C6E7F0E3C
:1049C00039143D6E3A503B103C103D10D8A4EBEF2B
:1049D00024F0EDEF24F0F5EF24F0000E366E000E1B
:1049E000376E000E386E000E396E35AEFAEF24F0D9
:1049F000FCEF24F005EF25F0326C331ED8B0332ADB
:104A0000341ED8B0342A800E355639AE0AEF25F060
:104A10000CEF25F015EF25F0366C371ED8B0372A8D
:104A2000381ED8B0382A800E3956000E321A000EC1
:104A3000331A000E341A800E351A000E361A000E84
:104A4000371A000E381A800E391A3650325C375039
:104A500033583850345839503558D8B032EF25F0E3
:104A600034EF25F037EF25F0D89038EF25F0D880D7
:104A70001200AAEC26F07DEC25F0A30E0001906F49
:104A8000550EE82EFED7902FFCD79EEC26F0015055
:104A90000001916F91518018D8A451EF25F053EF88
:104AA00025F062EF25F0000E806E78EC22F0210EEA
:104AB0000001906F760EE82EFED7902FFCD700F005
:104AC0003BEF25F0410E0001906FEE0EE82EFED771
:104AD000902FFCD700F09EEC26F001500001916F62
:104AE00091518018D8A477EF25F079EF25F03BEFAE
:104AF00025F053EF25F000EF00F0BBEC25F0070E9A
:104B00000D145E6E5F6A5EC001F05FC002F0000EC1
:104B100002BEFF0E036E046E010E59EC23F001C0BD
:104B20005AF002C05BF003C05CF004C05DF05AC0F4
:104B300088F05BC089F05CC08AF05DC08BF0000E2D
:104B40000001846F000E856F000E866F400E876F28
:104B500040EC04F084C08CF085C08DF086C08EF0EF
:104B600087C08FF033EC24F08CC05EF08DC05FF016
:104B70005EC080FF120098C001F099C002F09AC098
:104B800003F09BC004F02D0E056E7F0E066E950E91
:104B9000076E4C0E086EF2EC25F0010E01240001A8
:104BA000986F000E0220996F000E03209A6F000E7E
:104BB00004209B6F98C00FF099C010F09AC011F0BC
:104BC0009BC012F0120EEAEF25F0D890123211328B
:104BD00010320F32E82EE5EF25F00FC00DF010C0B7
:104BE0000EF01200000E096E000E0A6E000E0B6E23
:104BF000000E0C6E01A0FFEF25F001EF26F009EF8B
:104C000026F00550092606500A2207500B220850AC
:104C10000C22D8900536063607360836D89004326E
:104C20000332023201320150021003100410D8A4E2
:104C30001CEF26F01EEF26F0FAEF25F009C001F078
:104C40000AC002F00BC003F00CC004F01200000E0A
:104C50002E1A000E2F1A000E301A800E311A2AC09A
:104C600001F02BC002F02CC003F02DC004F02EC0C8
:104C700005F02FC006F030C007F031C008F01CEC82
:104C80001BF001C02AF002C02BF003C02CF004C0BE
:104C90002DF012000150021003100410D8B453EF8D
:104CA00026F055EF26F05DEF26F0000E011A000EFB
:104CB000021A000E031A800E041A01C001F002C08D
:104CC00002F003C003F004C004F0120092C005F02B
:104CD00093C006F094C007F095C008F001C005F03D
:104CE00002C006F003C007F004C008F0089E05C02B
:104CF00001F006C002F007C003F008C004F0120083
:104D0000FF0E056EFF0E066EFF0E076E7F0E086E1D
:104D100005C001F006C002F007C003F008C004F0AF
:104D2000120000EE92F00A0EEE6AE806FDE1000EB7
:104D3000F86E080EF76E000139EF25F08150036E12
:104D4000046A031C056E041C066E05C001F006C053
:104D500002F01200000E926E000E0F015B6F000E4B
:0A4D6000806E9368000E5C6F120075
:020000040020DA
:08000000FFFFFFFFFFFFFFFF00
:020000040030CA
:0E00000000285F3CFFD385FF0FC00FE00F40CC
:00000001FF
