:04000000CBEF3FF013
:107F96000001D7EF3FF0000E0F015B6F9298929EA3
:107FA600000E5C6F93881200CEEC3FF081B8DEEFD6
:107FB6003FF0E0EF3FF0E3EF3FF0899EE4EF3FF064
:107FC600898E8988020E026E450E016EAA0EE82E73
:107FD600FED7012EFCD7022EFAD78998020E026E22
:107FE600450E016EAA0EE82EFED7012EFCD7022EF4
:0A7FF600FAD7D9EF3FF000EF00F0DA
:020000040020DA
:08000000FFFFFFFFFFFFFFFF00
:020000040030CA
:0E00000000285F3CFFD385FF0FC00FE00F40CC
:00000001FF
